:03000000020056A5
:0C005600787FE4F6D8FD75810902009D5A
:06000300010800010903E1
:10011A00438E805389F0758A5A758CFFC28DD28CB2
:01012A0022B2
:03000B0002000EE2
:10000E00C0E0C0D012011A0508E508D395095004C6
:10001E00D2B28012C3E50894647480948040057552
:0B002E0008008002C2B2D0D0D0E03247
:04013400438F1022C3
:030053000200E2C6
:1000E200C0E0C0D0C3E50994647480948050087461
:0F00F2001E2509F5098003750900D0D0D0E03232
:1000390012011A120134D2AFD2A9B2B1A2B1B3924C
:0A004900B07F2C7E0112010180F04F
:08012B007F0F7E5ADEFEDFFCAF
:0101330022A9
:04010100AD07AC0694
:10010500E4FBFAC3EB9DEA9C500A12012B0BBB00E2
:04011500010A80EF6C
:0101190022C3
:10006200020039E493A3F8E493A34003F68001F27B
:1000720008DFF48029E493A3F85407240CC8C3339F
:10008200C4540F4420C8834004F456800146F6DF6E
:10009200E4800B0102040810204080900003E47EFB
:1000A200019360BCA3FF543F30E509541FFEE49363
:1000B200A360010ECF54C025E060A840B8E493A32A
:1000C200FAE493A3F8E493A3C8C582C8CAC583CA55
:1000D200F0A3C8C582C8CAC583CADFE9DEE780BE0D
:0100090000F6
:00000001FF
